{
  "contractName": "Personas",
  "abi": [
    {
      "inputs": [
        {
          "internalType": "string",
          "name": "_cedula",
          "type": "string"
        },
        {
          "internalType": "string",
          "name": "_nombres",
          "type": "string"
        },
        {
          "internalType": "string",
          "name": "_apellidos",
          "type": "string"
        }
      ],
      "name": "registrarPersonaEsencial",
      "outputs": [],
      "stateMutability": "nonpayable",
      "type": "function"
    },
    {
      "inputs": [
        {
          "internalType": "uint256",
          "name": "_id",
          "type": "uint256"
        },
        {
          "internalType": "string",
          "name": "_nombres",
          "type": "string"
        },
        {
          "internalType": "string",
          "name": "_apellidos",
          "type": "string"
        },
        {
          "internalType": "string",
          "name": "_cedula",
          "type": "string"
        },
        {
          "internalType": "enum Personas.Genero",
          "name": "_genero",
          "type": "uint8"
        },
        {
          "internalType": "uint256",
          "name": "_fechaNacimiento",
          "type": "uint256"
        },
        {
          "internalType": "string",
          "name": "_lugarNacimiento",
          "type": "string"
        },
        {
          "internalType": "string",
          "name": "_estadoCivil",
          "type": "string"
        },
        {
          "internalType": "string",
          "name": "_direccion",
          "type": "string"
        },
        {
          "internalType": "string",
          "name": "_telefono",
          "type": "string"
        },
        {
          "internalType": "string",
          "name": "_profesion",
          "type": "string"
        }
      ],
      "name": "registrarPersona",
      "outputs": [],
      "stateMutability": "nonpayable",
      "type": "function"
    },
    {
      "inputs": [
        {
          "internalType": "string",
          "name": "_ci",
          "type": "string"
        }
      ],
      "name": "obtenerIdPorCi",
      "outputs": [
        {
          "internalType": "uint256",
          "name": "",
          "type": "uint256"
        }
      ],
      "stateMutability": "view",
      "type": "function",
      "constant": true
    },
    {
      "inputs": [
        {
          "internalType": "string",
          "name": "_cedula",
          "type": "string"
        }
      ],
      "name": "obtenerPersonaPorCI",
      "outputs": [
        {
          "components": [
            {
              "internalType": "string",
              "name": "nombres",
              "type": "string"
            },
            {
              "internalType": "string",
              "name": "apellidos",
              "type": "string"
            },
            {
              "internalType": "string",
              "name": "cedula",
              "type": "string"
            },
            {
              "internalType": "enum Personas.Genero",
              "name": "genero",
              "type": "uint8"
            },
            {
              "internalType": "uint256",
              "name": "fechaNacimiento",
              "type": "uint256"
            },
            {
              "internalType": "string",
              "name": "lugarNacimiento",
              "type": "string"
            },
            {
              "internalType": "string",
              "name": "estadoCivil",
              "type": "string"
            },
            {
              "internalType": "string",
              "name": "direccion",
              "type": "string"
            },
            {
              "internalType": "string",
              "name": "telefono",
              "type": "string"
            },
            {
              "internalType": "string",
              "name": "profesion",
              "type": "string"
            }
          ],
          "internalType": "struct Personas.Persona",
          "name": "",
          "type": "tuple"
        }
      ],
      "stateMutability": "view",
      "type": "function",
      "constant": true
    },
    {
      "inputs": [
        {
          "internalType": "uint256",
          "name": "_id",
          "type": "uint256"
        }
      ],
      "name": "obtenerDatosPersona",
      "outputs": [
        {
          "components": [
            {
              "internalType": "string",
              "name": "nombres",
              "type": "string"
            },
            {
              "internalType": "string",
              "name": "apellidos",
              "type": "string"
            },
            {
              "internalType": "string",
              "name": "cedula",
              "type": "string"
            },
            {
              "internalType": "enum Personas.Genero",
              "name": "genero",
              "type": "uint8"
            },
            {
              "internalType": "uint256",
              "name": "fechaNacimiento",
              "type": "uint256"
            },
            {
              "internalType": "string",
              "name": "lugarNacimiento",
              "type": "string"
            },
            {
              "internalType": "string",
              "name": "estadoCivil",
              "type": "string"
            },
            {
              "internalType": "string",
              "name": "direccion",
              "type": "string"
            },
            {
              "internalType": "string",
              "name": "telefono",
              "type": "string"
            },
            {
              "internalType": "string",
              "name": "profesion",
              "type": "string"
            }
          ],
          "internalType": "struct Personas.Persona",
          "name": "",
          "type": "tuple"
        }
      ],
      "stateMutability": "view",
      "type": "function",
      "constant": true
    }
  ],
  "bytecode": "0x6080604052600160005534801561001557600080fd5b506117eb806100256000396000f3fe608060405234801561001057600080fd5b50600436106100575760003560e01c806322c9c8bc1461005c578063245bc3a8146100855780638aa64c5e1461009a578063c8315e1c146100bb578063d4ccd109146100ce575b600080fd5b61006f61006a36600461110d565b6100e1565b60405161007c91906111ae565b60405180910390f35b61009861009336600461137b565b61064b565b005b6100ad6100a83660046114ee565b610871565b60405190815260200161007c565b6100986100c936600461152b565b6108fa565b61006f6100dc3660046114ee565b610b05565b6100e96110a9565b60005482108015610115575060008281526001602052604081206002018054610111906115b3565b9050115b61015e5760405162461bcd60e51b8152602060048201526015602482015274506572736f6e61206e6f207265676973747261646160581b60448201526064015b60405180910390fd5b6000828152600160205260409081902081516101408101909252805482908290610187906115b3565b80601f01602080910402602001604051908101604052809291908181526020018280546101b3906115b3565b80156102005780601f106101d557610100808354040283529160200191610200565b820191906000526020600020905b8154815290600101906020018083116101e357829003601f168201915b50505050508152602001600182018054610219906115b3565b80601f0160208091040260200160405190810160405280929190818152602001828054610245906115b3565b80156102925780601f1061026757610100808354040283529160200191610292565b820191906000526020600020905b81548152906001019060200180831161027557829003601f168201915b505050505081526020016002820180546102ab906115b3565b80601f01602080910402602001604051908101604052809291908181526020018280546102d7906115b3565b80156103245780601f106102f957610100808354040283529160200191610324565b820191906000526020600020905b81548152906001019060200180831161030757829003601f168201915b5050509183525050600382015460209091019060ff16600281111561034b5761034b611176565b600281111561035c5761035c611176565b81526020016004820154815260200160058201805461037a906115b3565b80601f01602080910402602001604051908101604052809291908181526020018280546103a6906115b3565b80156103f35780601f106103c8576101008083540402835291602001916103f3565b820191906000526020600020905b8154815290600101906020018083116103d657829003601f168201915b5050505050815260200160068201805461040c906115b3565b80601f0160208091040260200160405190810160405280929190818152602001828054610438906115b3565b80156104855780601f1061045a57610100808354040283529160200191610485565b820191906000526020600020905b81548152906001019060200180831161046857829003601f168201915b5050505050815260200160078201805461049e906115b3565b80601f01602080910402602001604051908101604052809291908181526020018280546104ca906115b3565b80156105175780601f106104ec57610100808354040283529160200191610517565b820191906000526020600020905b8154815290600101906020018083116104fa57829003601f168201915b50505050508152602001600882018054610530906115b3565b80601f016020809104026020016040519081016040528092919081815260200182805461055c906115b3565b80156105a95780601f1061057e576101008083540402835291602001916105a9565b820191906000526020600020905b81548152906001019060200180831161058c57829003601f168201915b505050505081526020016009820180546105c2906115b3565b80601f01602080910402602001604051908101604052809291908181526020018280546105ee906115b3565b801561063b5780601f106106105761010080835404028352916020019161063b565b820191906000526020600020905b81548152906001019060200180831161061e57829003601f168201915b5050505050815250509050919050565b6000548b1061068c5760405162461bcd60e51b815260206004820152600d60248201526c4944206e6f2076c3a16c69646f60981b6044820152606401610155565b60028860405161069c91906115ed565b908152602001604051809103902054600014806106d657508a6002896040516106c591906115ed565b908152602001604051809103902054145b6107225760405162461bcd60e51b815260206004820152601860248201527f4349206475706c6963616461206f20696e76c3a16c69646100000000000000006044820152606401610155565b6040518061014001604052808b81526020018a815260200189815260200188600281111561075257610752611176565b815260208082018990526040808301899052606083018890526080830187905260a0830186905260c090920184905260008e81526001909152208151819061079a9082611658565b50602082015160018201906107af9082611658565b50604082015160028201906107c49082611658565b50606082015160038201805460ff191660018360028111156107e8576107e8611176565b02179055506080820151600482015560a0820151600582019061080b9082611658565b5060c082015160068201906108209082611658565b5060e082015160078201906108359082611658565b50610100820151600882019061084b9082611658565b5061012082015160098201906108619082611658565b5050505050505050505050505050565b600060028260405161088391906115ed565b9081526020016040518091039020546000036108d45760405162461bcd60e51b815260206004820152601060248201526f4349206e6f207265676973747261646160801b6044820152606401610155565b6002826040516108e491906115ed565b9081526020016040518091039020549050919050565b60028360405161090a91906115ed565b90815260200160405180910390205460001461095b5760405162461bcd60e51b815260206004820152601060248201526f4349207961207265676973747261646160801b6044820152606401610155565b60008054818061096a83611718565b9190505590508060028560405161098191906115ed565b9081526020016040518091039020819055506040518061014001604052808481526020018381526020018581526020016002808111156109c3576109c3611176565b815260006020808301829052604080518083018252838152818501528051808301825283815260608501528051808301825283815260808501528051808301825283815260a08501528051808301825283815260c090940193909352848252600190522081518190610a359082611658565b5060208201516001820190610a4a9082611658565b5060408201516002820190610a5f9082611658565b50606082015160038201805460ff19166001836002811115610a8357610a83611176565b02179055506080820151600482015560a08201516005820190610aa69082611658565b5060c08201516006820190610abb9082611658565b5060e08201516007820190610ad09082611658565b506101008201516008820190610ae69082611658565b506101208201516009820190610afc9082611658565b50505050505050565b610b0d6110a9565b60005b60005481101561105257828051906020012060016000838152602001908152602001600020600201604051610b45919061173f565b604051809103902003611040576000818152600160205260409081902081516101408101909252805482908290610b7b906115b3565b80601f0160208091040260200160405190810160405280929190818152602001828054610ba7906115b3565b8015610bf45780601f10610bc957610100808354040283529160200191610bf4565b820191906000526020600020905b815481529060010190602001808311610bd757829003601f168201915b50505050508152602001600182018054610c0d906115b3565b80601f0160208091040260200160405190810160405280929190818152602001828054610c39906115b3565b8015610c865780601f10610c5b57610100808354040283529160200191610c86565b820191906000526020600020905b815481529060010190602001808311610c6957829003601f168201915b50505050508152602001600282018054610c9f906115b3565b80601f0160208091040260200160405190810160405280929190818152602001828054610ccb906115b3565b8015610d185780601f10610ced57610100808354040283529160200191610d18565b820191906000526020600020905b815481529060010190602001808311610cfb57829003601f168201915b5050509183525050600382015460209091019060ff166002811115610d3f57610d3f611176565b6002811115610d5057610d50611176565b815260200160048201548152602001600582018054610d6e906115b3565b80601f0160208091040260200160405190810160405280929190818152602001828054610d9a906115b3565b8015610de75780601f10610dbc57610100808354040283529160200191610de7565b820191906000526020600020905b815481529060010190602001808311610dca57829003601f168201915b50505050508152602001600682018054610e00906115b3565b80601f0160208091040260200160405190810160405280929190818152602001828054610e2c906115b3565b8015610e795780601f10610e4e57610100808354040283529160200191610e79565b820191906000526020600020905b815481529060010190602001808311610e5c57829003601f168201915b50505050508152602001600782018054610e92906115b3565b80601f0160208091040260200160405190810160405280929190818152602001828054610ebe906115b3565b8015610f0b5780601f10610ee057610100808354040283529160200191610f0b565b820191906000526020600020905b815481529060010190602001808311610eee57829003601f168201915b50505050508152602001600882018054610f24906115b3565b80601f0160208091040260200160405190810160405280929190818152602001828054610f50906115b3565b8015610f9d5780601f10610f7257610100808354040283529160200191610f9d565b820191906000526020600020905b815481529060010190602001808311610f8057829003601f168201915b50505050508152602001600982018054610fb6906115b3565b80601f0160208091040260200160405190810160405280929190818152602001828054610fe2906115b3565b801561102f5780601f106110045761010080835404028352916020019161102f565b820191906000526020600020905b81548152906001019060200180831161101257829003601f168201915b505050505081525050915050919050565b8061104a81611718565b915050610b10565b5060405162461bcd60e51b815260206004820152602560248201527f506572736f6e6120636f6e206573612063c3a964756c61206e6f20656e636f6e604482015264747261646160d81b6064820152608401610155565b604051806101400160405280606081526020016060815260200160608152602001600060028111156110dd576110dd611176565b81526020016000815260200160608152602001606081526020016060815260200160608152602001606081525090565b60006020828403121561111f57600080fd5b5035919050565b60005b83811015611141578181015183820152602001611129565b50506000910152565b60008151808452611162816020860160208601611126565b601f01601f19169290920160200192915050565b634e487b7160e01b600052602160045260246000fd5b600381106111aa57634e487b7160e01b600052602160045260246000fd5b9052565b60208152600082516101408060208501526111cd61016085018361114a565b91506020850151601f19808685030160408701526111eb848361114a565b93506040870151915080868503016060870152611208848361114a565b93506060870151915061121e608087018361118c565b608087015160a087015260a08701519150808685030160c0870152611243848361114a565b935060c08701519150808685030160e0870152611260848361114a565b935060e0870151915061010081878603018188015261127f858461114a565b94508088015192505061012081878603018188015261129e858461114a565b9088015187820390920184880152935090506112ba838261114a565b9695505050505050565b634e487b7160e01b600052604160045260246000fd5b600082601f8301126112eb57600080fd5b813567ffffffffffffffff80821115611306576113066112c4565b604051601f8301601f19908116603f0116810190828211818310171561132e5761132e6112c4565b8160405283815286602085880101111561134757600080fd5b836020870160208301376000602085830101528094505050505092915050565b80356003811061137657600080fd5b919050565b60008060008060008060008060008060006101608c8e03121561139d57600080fd5b8b359a5067ffffffffffffffff8060208e013511156113bb57600080fd5b6113cb8e60208f01358f016112da565b9a508060408e013511156113de57600080fd5b6113ee8e60408f01358f016112da565b99508060608e0135111561140157600080fd5b6114118e60608f01358f016112da565b985061141f60808e01611367565b975060a08d013596508060c08e0135111561143957600080fd5b6114498e60c08f01358f016112da565b95508060e08e0135111561145c57600080fd5b61146c8e60e08f01358f016112da565b9450806101008e0135111561148057600080fd5b6114918e6101008f01358f016112da565b9350806101208e013511156114a557600080fd5b6114b68e6101208f01358f016112da565b9250806101408e013511156114ca57600080fd5b506114dc8d6101408e01358e016112da565b90509295989b509295989b9093969950565b60006020828403121561150057600080fd5b813567ffffffffffffffff81111561151757600080fd5b611523848285016112da565b949350505050565b60008060006060848603121561154057600080fd5b833567ffffffffffffffff8082111561155857600080fd5b611564878388016112da565b9450602086013591508082111561157a57600080fd5b611586878388016112da565b9350604086013591508082111561159c57600080fd5b506115a9868287016112da565b9150509250925092565b600181811c908216806115c757607f821691505b6020821081036115e757634e487b7160e01b600052602260045260246000fd5b50919050565b600082516115ff818460208701611126565b9190910192915050565b601f82111561165357600081815260208120601f850160051c810160208610156116305750805b601f850160051c820191505b8181101561164f5782815560010161163c565b5050505b505050565b815167ffffffffffffffff811115611672576116726112c4565b6116868161168084546115b3565b84611609565b602080601f8311600181146116bb57600084156116a35750858301515b600019600386901b1c1916600185901b17855561164f565b600085815260208120601f198616915b828110156116ea578886015182559484019460019091019084016116cb565b50858210156117085787850151600019600388901b60f8161c191681555b5050505050600190811b01905550565b60006001820161173857634e487b7160e01b600052601160045260246000fd5b5060010190565b600080835461174d816115b3565b60018281168015611765576001811461177a576117a9565b60ff19841687528215158302870194506117a9565b8760005260208060002060005b858110156117a05781548a820152908401908201611787565b50505082870194505b5092969550505050505056fea26469706673582212207c9743fe73d59fad8e8f0425fd7c86599d131e7ce341b7f74984431013b06e3d64736f6c63430008150033",
  "immutableReferences": {},
  "source": "// SPDX-License-Identifier: MIT\r\npragma solidity ^0.8.0;\r\n\r\n/**\r\n * @title Registro Civil\r\n * @dev Contrato para el registro de personas en el Registro Civil de Venezuela\r\n * @author Your Name\r\n * @notice Este contrato permite registrar y consultar datos de personas en el Registro Civil\r\n */\r\ncontract Personas {\r\n    // Definicin de los posibles gneros de una persona\r\n    enum Genero { Masculino, Femenino, Otro }\r\n\r\n    // Estructura que representa a una persona con sus datos bsicos\r\n    struct Persona {\r\n        string nombres; // Nombres de la persona\r\n        string apellidos; // Apellidos de la persona\r\n        string cedula; // Nmero de cdula de identidad\r\n        Genero genero; // Gnero de la persona\r\n        uint256 fechaNacimiento; // Fecha de nacimiento como timestamp\r\n        string lugarNacimiento; // Lugar de nacimiento\r\n        string estadoCivil; // Estado civil de la persona\r\n        string direccion; // Direccin de residencia\r\n        string telefono; // Nmero de telfono\r\n        string profesion; // Profesin u ocupacin\r\n    }\r\n\r\n    // Contador para generar IDs nicos\r\n    uint256 private nextId = 1;\r\n\r\n    // Mapping para almacenar las personas, usando su ID como clave\r\n    mapping(uint256 => Persona) private personas;\r\n\r\n    // Mapping para buscar el ID de una persona a partir de su cdula\r\n    mapping(string => uint256) private ciAIdPersona;\r\n\r\n    /**\r\n     * @dev Registra una persona con sus datos esenciales (solo cdula, nombres y apellidos)\r\n     * @param _cedula Nmero de cdula de identidad\r\n     * @param _nombres Nombres de la persona\r\n     * @param _apellidos Apellidos de la persona\r\n     */\r\n    function registrarPersonaEsencial(\r\n        string memory _cedula,\r\n        string memory _nombres,\r\n        string memory _apellidos\r\n    ) public {\r\n        require(ciAIdPersona[_cedula] == 0, \"CI ya registrada\");\r\n        uint256 id = nextId++;\r\n        ciAIdPersona[_cedula] = id;\r\n        personas[id] = Persona({\r\n            nombres: _nombres,\r\n            apellidos: _apellidos,\r\n            cedula: _cedula,\r\n            genero: Genero.Otro,\r\n            fechaNacimiento: 0,\r\n            lugarNacimiento: \"\",\r\n            estadoCivil: \"\",\r\n            direccion: \"\",\r\n            telefono: \"\",\r\n            profesion: \"\"\r\n        });\r\n    }\r\n\r\n    /**\r\n     * @dev Registra o actualiza todos los datos de una persona\r\n     * @param _id ID nico de la persona\r\n     * @param _nombres Nombres de la persona\r\n     * @param _apellidos Apellidos de la persona\r\n     * @param _cedula Nmero de cdula de identidad\r\n     * @param _genero Gnero de la persona\r\n     * @param _fechaNacimiento Fecha de nacimiento como timestamp\r\n     * @param _lugarNacimiento Lugar de nacimiento\r\n     * @param _estadoCivil Estado civil de la persona\r\n     * @param _direccion Direccin de residencia\r\n     * @param _telefono Nmero de telfono\r\n     * @param _profesion Profesin u ocupacin\r\n     */\r\n    function registrarPersona(\r\n        uint256 _id,\r\n        string memory _nombres,\r\n        string memory _apellidos,\r\n        string memory _cedula,\r\n        Genero _genero,\r\n        uint256 _fechaNacimiento,\r\n        string memory _lugarNacimiento,\r\n        string memory _estadoCivil,\r\n        string memory _direccion,\r\n        string memory _telefono,\r\n        string memory _profesion\r\n    ) public {\r\n        require(_id < nextId, unicode\"ID no vlido\");\r\n        require(ciAIdPersona[_cedula] == 0 || ciAIdPersona[_cedula] == _id, unicode\"CI duplicada o invlida\");\r\n\r\n        personas[_id] = Persona({\r\n            nombres: _nombres,\r\n            apellidos: _apellidos,\r\n            cedula: _cedula,\r\n            genero: _genero,\r\n            fechaNacimiento: _fechaNacimiento,\r\n            lugarNacimiento: _lugarNacimiento,\r\n            estadoCivil: _estadoCivil,\r\n            direccion: _direccion,\r\n            telefono: _telefono,\r\n            profesion: _profesion\r\n        });\r\n    }\r\n\r\n    /**\r\n     * @dev Obtiene el ID de una persona a partir de su cdula de identidad\r\n     * @param _ci Nmero de cdula de identidad\r\n     * @return ID nico de la persona\r\n     */\r\n    function obtenerIdPorCi(string memory _ci) public view returns (uint256) {\r\n        require(ciAIdPersona[_ci] != 0, \"CI no registrada\");\r\n        return ciAIdPersona[_ci];\r\n    }\r\n\r\n    /**\r\n     * @dev Obtiene los datos de una persona a partir de su cdula de identidad (CI).\r\n     * @param _cedula Cdula de identidad de la persona a buscar.\r\n     * @return Datos de la persona (revert si no se encuentra).\r\n     */\r\n    function obtenerPersonaPorCI(string memory _cedula) public view returns (Persona memory) {\r\n        for (uint256 i = 0; i < nextId; i++) {\r\n            if (keccak256(bytes(personas[i].cedula)) == keccak256(bytes(_cedula))) {\r\n                return personas[i];\r\n            }\r\n        }\r\n        revert(unicode\"Persona con esa cdula no encontrada\");\r\n    }\r\n\r\n    /**\r\n    * @dev Obtiene todos los datos de una persona a partir de su ID\r\n    * @param _id ID nico de la persona\r\n    * @return Estructura Persona con todos los datos\r\n    */\r\n    function obtenerDatosPersona(uint256 _id) public view returns (Persona memory) {\r\n        require(_id < nextId && bytes(personas[_id].cedula).length > 0, \"Persona no registrada\");\r\n        return personas[_id];\r\n    }\r\n}",
  "sourcePath": "C:\\Users\\Usuario\\Desktop\\Nachlass-Proyect\\SmartContract\\SmartJC\\contracts\\Persona.sol",
  "compiler": {
    "name": "solc",
    "version": "0.8.21+commit.d9974bed.Emscripten.clang"
  },
  "schemaVersion": "3.4.16",
  "updatedAt": "2025-12-14T01:49:21.424Z",
  "networkType": "ethereum",
  "devdoc": {
    "author": "Your Name",
    "details": "Contrato para el registro de personas en el Registro Civil de Venezuela",
    "kind": "dev",
    "methods": {
      "obtenerDatosPersona(uint256)": {
        "details": "Obtiene todos los datos de una persona a partir de su ID",
        "params": {
          "_id": "ID nico de la persona"
        },
        "returns": {
          "_0": "Estructura Persona con todos los datos"
        }
      },
      "obtenerIdPorCi(string)": {
        "details": "Obtiene el ID de una persona a partir de su cdula de identidad",
        "params": {
          "_ci": "Nmero de cdula de identidad"
        },
        "returns": {
          "_0": "ID nico de la persona"
        }
      },
      "obtenerPersonaPorCI(string)": {
        "details": "Obtiene los datos de una persona a partir de su cdula de identidad (CI).",
        "params": {
          "_cedula": "Cdula de identidad de la persona a buscar."
        },
        "returns": {
          "_0": "Datos de la persona (revert si no se encuentra)."
        }
      },
      "registrarPersona(uint256,string,string,string,uint8,uint256,string,string,string,string,string)": {
        "details": "Registra o actualiza todos los datos de una persona",
        "params": {
          "_apellidos": "Apellidos de la persona",
          "_cedula": "Nmero de cdula de identidad",
          "_direccion": "Direccin de residencia",
          "_estadoCivil": "Estado civil de la persona",
          "_fechaNacimiento": "Fecha de nacimiento como timestamp",
          "_genero": "Gnero de la persona",
          "_id": "ID nico de la persona",
          "_lugarNacimiento": "Lugar de nacimiento",
          "_nombres": "Nombres de la persona",
          "_profesion": "Profesin u ocupacin",
          "_telefono": "Nmero de telfono"
        }
      },
      "registrarPersonaEsencial(string,string,string)": {
        "details": "Registra una persona con sus datos esenciales (solo cdula, nombres y apellidos)",
        "params": {
          "_apellidos": "Apellidos de la persona",
          "_cedula": "Nmero de cdula de identidad",
          "_nombres": "Nombres de la persona"
        }
      }
    },
    "title": "Registro Civil",
    "version": 1
  },
  "userdoc": {
    "kind": "user",
    "methods": {},
    "notice": "Este contrato permite registrar y consultar datos de personas en el Registro Civil",
    "version": 1
  }
}